{
  "contractName": "Deed",
  "abi": [
    {
      "inputs": [
        {
          "internalType": "address",
          "name": "_address",
          "type": "address"
        },
        {
          "internalType": "address payable",
          "name": "_beneficiary",
          "type": "address"
        },
        {
          "internalType": "uint256",
          "name": "date",
          "type": "uint256"
        }
      ],
      "stateMutability": "nonpayable",
      "type": "constructor"
    },
    {
      "inputs": [],
      "name": "beneficiary",
      "outputs": [
        {
          "internalType": "address payable",
          "name": "",
          "type": "address"
        }
      ],
      "stateMutability": "view",
      "type": "function"
    },
    {
      "inputs": [],
      "name": "donation_date",
      "outputs": [
        {
          "internalType": "uint256",
          "name": "",
          "type": "uint256"
        }
      ],
      "stateMutability": "view",
      "type": "function"
    },
    {
      "inputs": [],
      "name": "lawyer",
      "outputs": [
        {
          "internalType": "address",
          "name": "",
          "type": "address"
        }
      ],
      "stateMutability": "view",
      "type": "function"
    },
    {
      "inputs": [],
      "name": "suddenDeath",
      "outputs": [],
      "stateMutability": "nonpayable",
      "type": "function"
    }
  ],
  "bytecode": "0x608060405234801561001057600080fd5b5060405161061138038061061183398181016040528101906100329190610187565b60008054906101000a900473ffffffffffffffffffffffffffffffffffffffff16925081600160006101000a81548173ffffffffffffffffffffffffffffffffffffffff021916908373ffffffffffffffffffffffffffffffffffffffff16021790555042816100a29190610209565b60028190555050505061025f565b600080fd5b600073ffffffffffffffffffffffffffffffffffffffff82169050919050565b60006100e0826100b5565b9050919050565b6100f0816100d5565b81146100fb57600080fd5b50565b60008151905061010d816100e7565b92915050565b600061011e826100b5565b9050919050565b61012e81610113565b811461013957600080fd5b50565b60008151905061014b81610125565b92915050565b6000819050919050565b61016481610151565b811461016f57600080fd5b50565b6000815190506101818161015b565b92915050565b6000806000606084860312156101a05761019f6100b0565b5b60006101ae868287016100fe565b93505060206101bf8682870161013c565b92505060406101d086828701610172565b9150509250925092565b7f4e487b7100000000000000000000000000000000000000000000000000000000600052601160045260246000fd5b600061021482610151565b915061021f83610151565b9250827fffffffffffffffffffffffffffffffffffffffffffffffffffffffffffffffff03821115610254576102536101da565b5b828201905092915050565b6103a38061026e6000396000f3fe608060405234801561001057600080fd5b506004361061004c5760003560e01c80630f37a5451461005157806338af3eed1461005b5780633bfb6e3114610079578063604591d314610097575b600080fd5b6100596100b5565b005b6100636101ae565b604051610070919061023f565b60405180910390f35b6100816101d4565b60405161008e919061027b565b60405180910390f35b61009f6101f8565b6040516100ac91906102af565b60405180910390f35b60008054906101000a900473ffffffffffffffffffffffffffffffffffffffff1673ffffffffffffffffffffffffffffffffffffffff163373ffffffffffffffffffffffffffffffffffffffff1614610143576040517f08c379a000000000000000000000000000000000000000000000000000000000815260040161013a9061034d565b60405180910390fd5b600160009054906101000a900473ffffffffffffffffffffffffffffffffffffffff1673ffffffffffffffffffffffffffffffffffffffff166108fc479081150290604051600060405180830381858888f193505050501580156101ab573d6000803e3d6000fd5b50565b600160009054906101000a900473ffffffffffffffffffffffffffffffffffffffff1681565b60008054906101000a900473ffffffffffffffffffffffffffffffffffffffff1681565b60025481565b600073ffffffffffffffffffffffffffffffffffffffff82169050919050565b6000610229826101fe565b9050919050565b6102398161021e565b82525050565b60006020820190506102546000830184610230565b92915050565b6000610265826101fe565b9050919050565b6102758161025a565b82525050565b6000602082019050610290600083018461026c565b92915050565b6000819050919050565b6102a981610296565b82525050565b60006020820190506102c460008301846102a0565b92915050565b600082825260208201905092915050565b7f204f6e6c7920746865206c61777965722063616e20657865637574652074686960008201527f7320666e28292e00000000000000000000000000000000000000000000000000602082015250565b60006103376027836102ca565b9150610342826102db565b604082019050919050565b600060208201905081810360008301526103668161032a565b905091905056fea2646970667358221220248f54ba50c511d9c8668ad10d3d0500ce5559064364616296b4b1258bfced3c64736f6c634300080f0033",
  "immutableReferences": {},
  "source": "pragma solidity 0.8.15;\n\ncontract Deed {\n    address public lawyer;\n    address  payable public beneficiary;\n    uint  public donation_date;\n\n    modifier onlyLawyer {\n        require(msg.sender == lawyer, \" Only the lawyer can execute this fn().\");\n        _;\n    }\n\n    constructor ( address _address, address payable _beneficiary, uint date)   {       // I define the construcotor as payble because  I want to send the funds upon deployment.\n        _address=lawyer;\n        beneficiary = _beneficiary;\n        donation_date = date +block.timestamp;\n    }\n\n    function send_funds () private {                                                            //funds will be sent to the inheritor on the agreed date.\n        require( block.timestamp >= donation_date, \"Funds are still locked\");\n        beneficiary.transfer(address(this).balance);\n\n    }\n \n\n     function suddenDeath () external onlyLawyer {                                              // option to send the funds earlier in case of premature death of the realtives.\n        beneficiary.transfer(address(this).balance);\n     }\n\n\n\n\n\n\n\n\n\n}",
  "sourcePath": "/Users/petartodorov/Desktop/coding/solidity/Dapp30/deed/contracts/Deed.sol",
  "compiler": {
    "name": "solc",
    "version": "0.8.15+commit.e14f2714.Emscripten.clang"
  },
  "schemaVersion": "3.4.8",
  "updatedAt": "2022-08-17T11:14:18.909Z",
  "devdoc": {
    "kind": "dev",
    "methods": {},
    "version": 1
  },
  "userdoc": {
    "kind": "user",
    "methods": {},
    "version": 1
  }
}